:0300000002072DC7
:0C072D00787FE4F6D8FD758107020774A0
:1006970090000074E8F0A374F4F0A37432F0120D24
:1006A7006E803D120BFB120C2490008B7401F0A39B
:1006B7007400F0A37485F07B017A0079031203C7F5
:1006C700EF70187B017A007903120958EF600C7BF1
:1006D700017A0079031209A0EF701E7FF412084512
:1006E70090008B7401F0A37400F0A37485F07B0174
:1006F7007A007903120D1980AA7B017A0079031217
:10070700048A7B017A007985120A6F1205F9900035
:1007170004E0FF900000E0C39FFFA3E0FD120D641B
:06072700120A2F0206AACF
:100D1900120AAC90008BE0FBA3E0FAA3E0F9020B06
:010D29004A7F
:100A6F00900088EBF0A3EAF0A3E9F0900088E0FB98
:100A7F00A3E0FAA3E0F9120D32EF70131207B9AD2C
:100A8F0007900088E0FBA3E0FAA3E0F91209E890D1
:0D0A9F000088E0FBA3E0FAA3E0F9020AE5FD
:0B095800900088EBF0A3EAF0A3E9F0A8
:10096300E4A3F0120D8D90008BEFF0120CB1120C7A
:10097300D1EF601890008BE0FF120CB1AD0790002F
:1009830088E0FBA3E0FAA3E0F9120B1A90008BE0D6
:0C099300FF120D4EEF60037F00227F0179
:01099F002235
:0B09A000900088EBF0A3EAF0A3E9F060
:1009AB00E4A3F0120D8790008BEFF0120C91120C58
:1009BB00D1EF601890008BE0FF120C91AD07900007
:1009CB0088E0FBA3E0FAA3E0F9120B1A90008BE08E
:0C09DB00FF120D43EF60037F00227F013C
:0109E70022ED
:100CD100EF64016012EF6402600DEF64036008EFDE
:0A0CE100640460037F00227F0122FB
:100D0300EF1FAA0670011E4A600BE4FDEDC3940DAC
:050D130050EE0D80F719
:010D180022B8
:0A0D6400EFD39D40028002AF05228C
:090D6E00D288D2A8D2AFD2B22281
:060D8700900193E0FF2241
:0B0D4300EFB445047F0180027F002216
:100C9100EF24BE600F24F8601124F8600A24367036
:100CA1000C7F01227F03227F02227F04227F002208
:0300030002024CAA
:10024C00C0E0C0F0C083C082C0D075D000C000C078
:0D025C0001C002C003C004C005C006C007F9
:10026900900190E4F030B2030203AC9000D674031D
:10027900F0A374E8F020B226D39000D7E094009060
:1002890000D6E0940040177F017E00120D03900014
:10029900D7E024FFF09000D6E034FFF080D720B2F9
:1002A900030203AC9000D67401F0A374F4F030B2E9
:1002B90026D39000D7E094009000D6E09400401730
:1002C9007F017E00120D039000D7E024FFF090001B
:1002D900D6E034FFF080D79000D5E4F09000D4E464
:1002E900F09000D6E4F0A3743CF020B226D390003D
:1002F900D7E094009000D6E0940040177F017E007B
:10030900120D039000D7E024FFF09000D6E034FFEF
:10031900F080D79000D67401F0A374F4F030B237AE
:10032900D39000D7E094009000D6E0940040287F55
:10033900017E00120D03900190E004F09000D7E0D7
:1003490024FFF09000D6E034FFF0900190E0D394C0
:100359001E40CAD2A8804C9000D5E0FF2491F582B6
:10036900E43401F583E0C313F0900190E0C39408ED
:10037900400E74912FF582E43401F583E04480F056
:10038900900190E4F09000D4E004F0E0C3940850A8
:10039900030202EA9000D5E004F0E0C3940450039C
:0303A9000202E568
:1003AC00D007D006D005D004D003D002D001D000A5
:0B03BC00D0D0D082D083D0F0D0E0324F
:030D8D00AFB022E2
:100CB100EF2481601524C0600B24E0600A24E470F5
:100CC1000C7F01227F02227F03227F04227F0022E8
:0B0D4E00EFB4FE047F0180027F002252
:0C0D3700ED1475F008A4FDEF142DFF2250
:100CEB00EF540704900094F0EF131313541F04A355
:070CFB00F07B017A007994FF
:010D020022CE
:100AAC0090008E7405F0A304F07401120175F582A8
:100ABC00758300E4120187C003C002C00178937CE7
:100ACC00007D017B017A00798E7E007F021200D6B8
:090ADC00D001D002D003020BA5E9
:100BA500E94A7002FF22C003C002C00178987C00A8
:100BB5007D017B017A0079937E007F021200D6D0F9
:0B0BC50001D002D0031208B87F01220B
:1008B800900095EBF0A3EAF0A3E9F0900095E0FB37
:1008C800A3E0FAA3E0F990000112011575F002A463
:1008D800FFE92402F9E43AFAE92FF9EA35F0A80128
:1008E800FCAD037B017A0079987E007F021200D666
:1008F800900095E0FBA3E0FAA3E0F99000017401F1
:03090800020142A7
:080D7700E92402F9E43AFA2232
:100B1A001200FCFFB40105ED64026023EFB4020584
:100B2A00ED6401601A1200FCB40305ED6404600F61
:100B3A001200FCB40405ED64036004ED1201752291
:0B03C700900088EBF0A3EAF0A3E9F03F
:1003D20090000212011590008EF090000312011598
:1003E20090008FF0A37401F090008BE0FBA3E0FA81
:1003F200A3E0F94A6040900001120115FF90008EBF
:10040200E06F7032900002120115FF90008FE0B58C
:100412000724900088E0FBA3E0FAA3E0F990000132
:10042200740112014290008BE0FBA3E0FAA3E0F911
:10043200120BD07F0022900088E0FBA3E0FAA3E039
:10044200F9900001120115FF900090E0FEC39F5049
:1004520034EE75F002A4FFE92FF9EA35F0FA9000C4
:1004620002120115FF90008EE0B5071190000312F1
:100472000115FF90008FE0B507037F0122900090E5
:07048200E004F080B17F00EF
:010489002250
:0B048A00900088EBF0A3EAF0A3E9F07B
:100495009000011201151490008BF090008BE0FF85
:1004A500C394014076EF75F002A4FFAEF09000888A
:1004B500E0FBA3E0FAA3E02FF9EA3EFAC003C0028D
:1004C500C001900088A3E0FAA3E02402F9E43AFA17
:1004D500E92FF9EA3EA801FCAD03D001D002D00313
:1004E5007E007F021200D6900088E0FBA3E0FAA30D
:1004F500E02402F9E43AFAA3E075F002A429F9EA46
:1005050035F0FA788C7C007D017E007F021200D6E2
:10051500120C4D90008BE014F08080900088E0FB79
:10052500A3E0FAA3E0F912054C900088E0FBA3E0F4
:10053500FAA3E0F9120D77788C7C007D017E007FAF
:07054500021200D6020C4D6A
:0B054C0090008CEBF0A3EAF0A3E9F0B4
:10055700120D77A3EBF0A3EAF0A3E9F090008CE08B
:10056700FBA3E0FAA3E0F91200FC24FE6028146064
:10057700481460602403707990008FE0FBA3E0FAD1
:10058700A3E0F9900001120115FFB401047F088070
:1005970021EF14FF801C90008FE0FBA3E0FAA3E09B
:1005A700F9900001120115FFB408047F018003EFE1
:1005B70004FF900001EF02018790008FE0FBA3E0AA
:1005C700FAA3E0F91200FCFFB401047F08801EEFD4
:1005D70014FF801990008FE0FBA3E0FAA3E0F91263
:1005E70000FCFFB408047F018003EF04FFEF120152
:0105F700758E
:0105F80022E0
:100B4A0090008EEBF0A3EAF0A3E9F090008EE0FBB0
:100B5A00A3E0FAA3E0F974011201751207B9AD070F
:0E0B6A0090008EE0FBA3E0FAA3E0F90209E898
:1007B900E4900093F0900091F0E4900092F09000A2
:1007C90092E0FFC39408504E900091E0FD75F00847
:1007D900A42400F582E43401F583E5822FF582E44F
:1007E9003583F583E07027900092E02401FFE4331C
:1007F900FEED2401FDE433FC120D37900093E0FE79
:1008090004F074942EF582E43400F583EFF090003F
:1008190092E004F080A8900091E004F0E0C394080D
:10082900409712090B900093E0FD7C001201A97416
:0B083900942DF58274003CF583E0FF75
:010844002291
:1009E800900091EBF0A3EAF0A3E9F0AF05120CEB4D
:1009F800C003C002C001900091E0FBA3E0FAA3E0AD
:100A08002401F9E43AA801FCAD03D001D002D003D7
:100A18007E007F021200D6900091E0FBA3E0FAA3CB
:070A2800E0F9740102017501
:100BD000900091EBF0A3EAF0A3E9F0900091120DE0
:100BE0002AEF7002FF22900091E0FBA3E0FAA3E05D
:0B0BF000F9E4120175120C247F0122B1
:080D2A00E0FBA3E0FAA3E0F9ED
:050D32001200FCFF228D
:100AE50090008BEBF0A3EAF0A3E9F090008B120DD8
:100AF5002AEF602090008BE0FBA3E0FAA3E024013D
:100B0500F9E43AFA788E7C007D017E007F021200BE
:050B1500D6120C6F2256
:080D7F007FBFDFEFF7FBFDFE73
:100B7800602800D8000000181800000000003C247D
:100B8800243C0000007E424242427E00FF81818177
:0C0B9800818181FF0000000000000000CF
:100BFB00E4FFE4FEEF75F008A42400F582E4340171
:100C0B00F583E5822EF582E43583F583E4F00EEE71
:080C1B00B408E10FEFB408DAA0
:010C230022AE
:100C2400E4FFE4FEEF75F008A42450F582E43401F7
:100C3400F583E5822EF582E43583F583E4F00EEE48
:080C4400B408E10FEFB408DA77
:010C4C002285
:0A0D59007F08900148E4F0A3DFFCDE
:010D6300226D
:100C4D0090008CE0FFA3E075F008A424F7F582E492
:100C5D003400F583E5822FF582E43583F583740145
:020C6D00F02273
:100C6F0090008EE0FFA3E075F008A42447F582E41E
:100C7F003401F583E5822FF582E43583F583740122
:020C8F00F02251
:1005F900120D59E4FFE4FE74482FF582E43401F545
:1006090083C083C082E0FDEE75F008A42400F58262
:10061900E43401F583E5822FF582E43583F583E03F
:10062900FCED4CD082D083F074402FF582E4340184
:10063900F583C083C082E0FDEE75F008A42450F56F
:1006490082E43401F583E5822FF582E43583F5836D
:10065900E0FCED4CD082D083F0EEC39407501C74BB
:10066900482FF582E43401F583E025E0F074402F4A
:10067900F582E43401F583E025E0F00EEE640860CC
:0D068900030206000FEF640860030205FE87
:010696002241
:100A2F00E4900088F0EFD394004034E4FE75A0FF0B
:100A3F007590FF74482EF582E43401F583E0F5805C
:100A4F00EE900D7F93FDF5A074402EF582E43401F6
:0F0A5F00F583E0F5808D900EEEB408D11F80C6B0
:010A6E002265
:05084500900088EFF0B7
:10084A0075A0FFE4A3F0900088E090008BF0900080
:10085A008BE0D39400404AE490008AF090008AE04A
:10086A00FF900089E075F008A424D8F582E43400EA
:10087A00F583E5822FF582E43583F583E0F580EF91
:10088A00900D7F93F5907F017E00120D0390008AF0
:10089A00E004F0E0C3940840C390008BE014F080B9
:0D08AA00AD900089E004F0E0C39405409992
:0108B700221E
:10073900020697E493A3F8E493A34003F68001F239
:1007490008DFF48029E493A3F85407240CC8C333C1
:10075900C4540F4420C8834004F456800146F6DF90
:10076900E4800B0102040810204080900B78E47E9D
:10077900019360BCA3FF543F30E509541FFEE49385
:10078900A360010ECF54C025E060A840B8E493A34C
:10079900FAE493A3F8E493A3C8C582C8CAC583CA77
:1007A900F0A3C8C582C8CAC583CADFE9DEE780BE2F
:010BA4000050
:10000600E709F608DFFA8046E709F208DFFA803EDC
:1000160088828C83E709F0A3DFFA8032E309F608C9
:10002600DFFA8078E309F208DFFA807088828C8331
:10003600E309F0A3DFFA806489828A83E0A3F608E5
:10004600DFFA805889828A83E0A3F208DFFA804CBF
:1000560080D280FA80C680D4806980F28033801096
:1000660080A680EA809A80A880DA80E280CA8033FF
:1000760089828A83ECFAE493A3C8C582C8CCC58377
:10008600CCF0A3C8C582C8CCC583CCDFE9DEE78047
:100096000D89828A83E493A3F608DFF9ECFAA9F0C6
:1000A600EDFB2289828A83ECFAE0A3C8C582C8CC1C
:1000B600C583CCF0A3C8C582C8CCC583CCDFEADE35
:1000C600E880DB89828A83E493A3F208DFF980CC97
:1000D60088F0EF60010E4E60C388F0ED2402B40490
:1000E6000050B9F582EB2402B4040050AF23234537
:0600F60082239000567306
:1000FC00BB010689828A83E0225002E722BBFE0202
:09010C00E32289828A83E4932234
:10011500BB010CE58229F582E5833AF583E022509F
:1001250006E92582F8E622BBFE06E92582F8E222E9
:0D013500E58229F582E5833AF583E4932203
:10014200BB010FF8E58229F582E5833AF583E028C1
:10015200F0225009C58229F8E58226F622BBFE0963
:10016200C58229F8E22582F222F8EA2583F583E99D
:03017200932822AD
:10017500BB010689828A83F0225002F722BBFE0169
:02018500F32263
:10018700F8BB010DE58229F582E5833AF583E8F0AE
:10019700225006E92582C8F622BBFE05E92582C85A
:0201A700F22242
:1001A900C2D5EC30E709B2D5E4C39DFDE49CFCEE71
:1001B90030E715B2D5E4C39FFFE49EFE1201DFC309
:1001C900E49DFDE49CFC80031201DF30D507C3E404
:0601D9009FFFE49EFE22E0
:10090B009001971202347810EC4D4E4F70047CA579
:10091B007DA5C3EC13FCED13FDEE13FEEF13FF509F
:10092B0010EC64CCFCED644CFDEE644EFEEF64CE3B
:10093B00FFD8DF900197120240EE547FFE22900108
:0D094B0097EEF0EFA3F0A374A5F0A3F02247
:1001DF00BC000BBE0029EF8DF084FFADF022E4CC04
:1001EF00F875F008EF2FFFEE33FEEC33FCEE9DECCD
:1001FF00984005FCEE9DFE0FD5F0E9E4CEFD22ED13
:10020F00F8F5F0EE8420D21CFEADF075F008EF2F5C
:10021F00FFED33FD4007985006D5F0F222C398FD4D
:05022F000FD5F0EA22EA
:0C023400E0FCA3E0FDA3E0FEA3E0FF223D
:0C024000ECF0A3EDF0A3EEF0A3EFF02231
:00000001FF
