:03000000020BD21E
:0C0BD200787FE4F6D8FD7581070206EB81
:1006EB00E4900000F0120C0B120ABE120A6C120AF4
:1006FB00957B017A0079011204527B017A00798390
:10070B0012090D1205C17FE87E031208C6900089FD
:10071B007401F0A37400F0A37483F07B017A007969
:10072B000112038FEF70187B017A0079011207EF2A
:10073B00EF600C7B017A007901120837EF70AC1275
:04074B000ABE80A7BB
:100ABE009000897401F0A37400F0A37483F07B019D
:040ACE007A00790130
:100AD20012094A900089E0FBA3E0FAA3E0F90209B7
:010AE200E82B
:10090D00900086EBF0A3EAF0A3E9F0900086E0FBFF
:10091D00A3E0FAA3E0F9120BCDEF701312065FAD51
:10092D0007900086E0FBA3E0FAA3E0F912087F90A0
:0D093D000086E0FBA3E0FAA3E0F9020983C5
:0B07EF00900086EBF0A3EAF0A3E9F015
:1007FA00E4A3F0120C2A900089EFF0120B47120BB7
:10080A0067EF6018900089E0FF120B47AD07900070
:10081A0086E0FBA3E0FAA3E0F91209B8900089E0A8
:0C082A00FF120BF5EF60037F00227F013E
:01083600229F
:0B083700900086EBF0A3EAF0A3E9F0CC
:10084200E4A3F0120C24900089EFF0120B27120B94
:1008520067EF6018900089E0FF120B27AD07900048
:1008620086E0FBA3E0FAA3E0F91209B8900089E060
:0C087200FF120BEAEF60037F00227F0101
:01087E002257
:100B6700EF64016012EF6402600DEF64036008EF49
:0A0B7700640460037F00227F012266
:040B81007F017E0072
:100B8500EF1FAA0670011E4A600BE4FDEDC3940D2C
:050B950050EE0D80F799
:010B9A002238
:090C0B00D288D2A8D2AFD2B222E5
:060C2400900167E0FF22D1
:0B0BEA00EFB445047F0180027F002271
:100B2700EF24BE600F24F8601124F8600A243670A1
:100B37000C7F01227F03227F02227F04227F002273
:0300030002024CAA
:10024C00C0E0C083C082C0D075D000C002C003C063
:07025C0004C005C006C00745
:10026300900164E4F030B20302037A9000D2740385
:10027300F0A374E8F020B220D39000D3E094009070
:1002830000D2E094004011120B81A3E024FFF09010
:1002930000D2E034FFF080DD20B20302037A900045
:1002A300D27401F0A374F4F030B220D39000D3E001
:1002B30094009000D2E094004011120B81A3E0243B
:1002C300FFF09000D2E034FFF080DDE4FCE4FB902B
:1002D30000D2E4F0A3743CF020B220D39000D3E02A
:1002E30094009000D2E094004011120B81A3E0240B
:1002F300FFF09000D2E034FFF080DD9000D2740173
:10030300F0A374F4F030B233D39000D3E0940090B0
:1003130000D2E094004024120B81900164E004F0C9
:100323009000D3E024FFF09000D2E034FFF090017E
:1003330064E0D3941E40CED2A8803C74652CF58231
:10034300E43401F583E0C313F0900164E0C394083F
:10035300400E74652CF582E43401F583E04480F0AB
:10036300900164E4F00BEB640860030202D20CEC2E
:07037300640460030202D0E4
:10037A00D007D006D005D004D003D002D0D0D08286
:05038A00D083D0E03239
:030C2A00AFB02246
:100B4700EF2481601524C0600B24E0600A24E47060
:100B57000C7F01227F02227F03227F04227F002253
:0B0BF500EFB4FE047F0180027F0022AD
:100BB300900170E01475F008A4FF90016FE0142F0A
:020BC300FF220F
:0C0BDE00ED1475F008A4FDEF142DFF22AB
:100B9B00EF540704900092F0EF131313541F04A3A8
:070BAB00F07B017A00799252
:010BB2002220
:10094A0090008C7405F0A304F07401120175F5820D
:10095A00758300E4120187C003C002C00178917C4C
:10096A00007D017B017A00798C7E007F021200D61D
:09097A00D001D002D003020A16DC
:100A1600E94A7002FF22C003C002C00178967C003A
:100A26007D017B017A0079917E007F021200D6D08B
:0B0A360001D002D00312074F7F012205
:10074F00900093EBF0A3EAF0A3E9F0900093E0FBA5
:10075F00A3E0FAA3E0F990000112011575F002A4CD
:10076F00FFE92402F9E43AFAE92FF9EA35F0A80192
:10077F00FCAD037B017A0079967E007F021200D6D2
:10078F00900093E0FBA3E0FAA3E0F990000174015D
:03079F0002014212
:080C1400E92402F9E43AFA2296
:1009B8001200FCFFB40105ED64026023EFB40205E8
:1009C800ED6401601A1200FCB40305ED6404600FC5
:1009D8001200FCB40405ED64036004ED12017522F5
:0B038F00900086EBF0A3EAF0A3E9F079
:10039A0090000212011590008CF0900003120115D2
:1003AA0090008DF0A37401F0900089E0FBA3E0FABD
:1003BA00A3E0F94A6040900001120115FF90008CF9
:1003CA00E06F7032900002120115FF90008DE0B5C7
:1003DA000724900086E0FBA3E0FAA3E0F99000016D
:1003EA007401120142900089E0FBA3E0FAA3E0F94C
:1003FA00120A417F0022900086E0FBA3E0FAA3E004
:10040A00F9900001120115FF90008EE0FEC39F5083
:10041A0034EE75F002A4FFE92FF9EA35F0FA9000FC
:10042A0002120115FF90008CE0B50711900003122B
:10043A000115FF90008DE0B507037F012290008E21
:07044A00E004F080B17F0027
:010451002288
:0B045200900086EBF0A3EAF0A3E9F0B5
:10045D0090000112011514900089F0900089E0FFC1
:10046D00C394014076EF75F002A4FFAEF0900086C4
:10047D00E0FBA3E0FAA3E02FF9EA3EFAC003C002C5
:10048D00C001900086A3E0FAA3E02402F9E43AFA51
:10049D00E92FF9EA3EA801FCAD03D001D002D0034B
:1004AD007E007F021200D6900086E0FBA3E0FAA347
:1004BD00E02402F9E43AFAA3E075F002A429F9EA7E
:1004CD0035F0FA788A7C007D017E007F021200D61D
:1004DD00120AE3900089E014F08080900086E0FB22
:1004ED00A3E0FAA3E0F9120514900086E0FBA3E067
:1004FD00FAA3E0F9120C14788A7C007D017E007F4E
:07050D00021200D6020AE30E
:0B05140090008AEBF0A3EAF0A3E9F0EE
:10051F00120C14A3EBF0A3EAF0A3E9F090008AE029
:10052F00FBA3E0FAA3E0F91200FC24FE602814609C
:10053F00481460602403707990008DE0FBA3E0FA0B
:10054F00A3E0F9900001120115FFB401047F0880A8
:10055F0021EF14FF801C90008DE0FBA3E0FAA3E0D5
:10056F00F9900001120115FFB408047F018003EF19
:10057F0004FF900001EF02018790008DE0FBA3E0E4
:10058F00FAA3E0F91200FCFFB401047F08801EEF0C
:10059F0014FF801990008DE0FBA3E0FAA3E0F9129D
:1005AF0000FCFFB408047F018003EF04FFEF12018A
:0105BF0075C6
:0105C0002218
:1009E80090008CEBF0A3EAF0A3E9F090008CE0FB18
:1009F800A3E0FAA3E0F9740112017512065FAD07CE
:0E0A080090008CE0FBA3E0FAA3E0F902087F67
:10065F00E4900091F090008FF0E4900090F0900003
:10066F0090E0FFC39408504E90008FE0FD75F008A6
:10067F00A424D4F582E43400F583E5822FF582E4D7
:10068F003583F583E07027900090E02401FFE43379
:10069F00FEED2401FDE433FC120BDE900091E0FE31
:1006AF0004F074922EF582E43400F583EFF090009D
:1006BF0090E004F080A890008FE004F0E0C394086D
:1006CF0040971207A2900091E0FD7C001201A974DF
:0B06DF00922DF58274003CF583E0FFD3
:0106EA0022ED
:10087F0090008FEBF0A3EAF0A3E9F0AF05120B9B0A
:10088F00C003C002C00190008FE0FBA3E0FAA3E019
:10089F002401F9E43AA801FCAD03D001D002D00342
:1008AF007E007F021200D690008FE0FBA3E0FAA338
:0708BF00E0F974010201756C
:100A410090008FEBF0A3EAF0A3E9F090008F120B76
:100A5100C5EF7002FF2290008FE0FBA3E0FAA3E054
:0B0A6100F9E4120175120A957F0122D2
:080BC500E0FBA3E0FAA3E0F954
:050BCD001200FCFF22F4
:10098300900089EBF0A3EAF0A3E9F0900089120B41
:10099300C5EF6020900089E0FBA3E0FAA3E0240107
:1009A300F9E43AFA788C7C007D017E007F02120024
:0509B300D6120B052225
:080C1C007FBFDFEFF7FBFDFED7
:100A6C00E4FFE4FEEF75F008A424D4F582E434002E
:100A7C00F583E5822EF582E43583F583E4F00EEE02
:080A8C00B408E10FEFB408DA31
:010A9400223F
:100A9500E4FFE4FEEF75F008A42424F582E43401B4
:100AA500F583E5822EF582E43583F583E4F00EEED9
:080AB500B408E10FEFB408DA08
:010ABD002216
:0A0C00007F0890011CE4F0A3DFFC64
:010C0A0022C7
:100AE30090008AE0FFA3E075F008A424CBF582E42C
:100AF3003400F583E5822FF582E43583F5837401B1
:020B0300F022DE
:100B050090008CE0FFA3E075F008A4241BF582E4B7
:100B15003401F583E5822FF582E43583F58374018D
:020B2500F022BC
:1005C100120C00E4FFE4FE741C2FF582E43401F503
:1005D10083C083C082E0FDEE75F008A424D4F582C7
:1005E100E43400F583E5822FF582E43583F583E079
:1005F100FCED4CD082D083F074142FF582E43401E9
:10060100F583C083C082E0FDEE75F008A42424F5D3
:1006110082E43401F583E5822FF582E43583F583A5
:10062100E0FCED4CD082D083F0EEC39407501C74F3
:100631001C2FF582E43401F583E025E0F074142FDA
:10064100F582E43401F583E025E0F00EEE64086004
:0D065100030205C80FEF640860030205C630
:01065E002279
:1008C600E4900086F0D3EF9400EE94004038E4FD07
:1008D60075A0FF7590FF741C2DF582E43401F58335
:1008E600E0F580ED900C1C93FCF5A074142DF582B8
:1008F600E43401F583E0F5808C900DEDB408D1EF7A
:060906001F70C21E80BF3D
:01090C0022C8
:10000600E709F608DFFA8046E709F208DFFA803EDC
:1000160088828C83E709F0A3DFFA8032E309F608C9
:10002600DFFA8078E309F208DFFA807088828C8331
:10003600E309F0A3DFFA806489828A83E0A3F608E5
:10004600DFFA805889828A83E0A3F208DFFA804CBF
:1000560080D280FA80C680D4806980F28033801096
:1000660080A680EA809A80A880DA80E280CA8033FF
:1000760089828A83ECFAE493A3C8C582C8CCC58377
:10008600CCF0A3C8C582C8CCC583CCDFE9DEE78047
:100096000D89828A83E493A3F608DFF9ECFAA9F0C6
:1000A600EDFB2289828A83ECFAE0A3C8C582C8CC1C
:1000B600C583CCF0A3C8C582C8CCC583CCDFEADE35
:1000C600E880DB89828A83E493A3F208DFF980CC97
:1000D60088F0EF60010E4E60C388F0ED2402B40490
:1000E6000050B9F582EB2402B4040050AF23234537
:0600F60082239000567306
:1000FC00BB010689828A83E0225002E722BBFE0202
:09010C00E32289828A83E4932234
:10011500BB010CE58229F582E5833AF583E022509F
:1001250006E92582F8E622BBFE06E92582F8E222E9
:0D013500E58229F582E5833AF583E4932203
:10014200BB010FF8E58229F582E5833AF583E028C1
:10015200F0225009C58229F8E58226F622BBFE0963
:10016200C58229F8E22582F222F8EA2583F583E99D
:03017200932822AD
:10017500BB010689828A83F0225002F722BBFE0169
:02018500F32263
:10018700F8BB010DE58229F582E5833AF583E8F0AE
:10019700225006E92582C8F622BBFE05E92582C85A
:0201A700F22242
:1001A900C2D5EC30E709B2D5E4C39DFDE49CFCEE71
:1001B90030E715B2D5E4C39FFFE49EFE1201DFC309
:1001C900E49DFDE49CFC80031201DF30D507C3E404
:0601D9009FFFE49EFE22E0
:1007A20090016B1202347810EC4D4E4F70047CA510
:1007B2007DA5C3EC13FCED13FDEE13FEEF13FF500A
:1007C20010EC64CCFCED644CFDEE644EFEEF64CEA6
:1007D200FFD8DF90016B120240EE547FFE2290019F
:0D07E2006BEEF0EFA3F0A374A5F0A3F022DE
:1001DF00BC000BBE0029EF8DF084FFADF022E4CC04
:1001EF00F875F008EF2FFFEE33FEEC33FCEE9DECCD
:1001FF00984005FCEE9DFE0FD5F0E9E4CEFD22ED13
:10020F00F8F5F0EE8420D21CFEADF075F008EF2F5C
:10021F00FFED33FD4007985006D5F0F222C398FD4D
:05022F000FD5F0EA22EA
:0C023400E0FCA3E0FDA3E0FEA3E0FF223D
:0C024000ECF0A3EDF0A3EEF0A3EFF02231
:00000001FF
