:0300000002077E76
:0C077E00787FE4F6D8FD7581070207C5FE
:1003D9009000007403F0A374E8F0A37401F0A3740F
:1003E900F4F0A3E4F0A37432F0E4A3F0A3F0120D47
:1003F900BE803D120C55120C7E9000907401F0A342
:100409007400F0A3748AF07B017A0079081204AEB3
:10041900EF70187B017A0079081209F2EF600C7B02
:10042900017A007908120A3AEF701E7FF4120896D1
:100439009000907401F0A37400F0A3748AF07B011A
:100449007A007908120D7380AA7B017A0079081263
:1004590005717B017A00798A120AC91206E09000B7
:1004690009E0FF7E00900004E0FCA3E0FD1201A971
:10047900C3900001E09FFF900000E09EFE90000203
:10048900E0FCA3E0FDC39FEE6480F8EC6480985023
:10049900028004AE04AF05900006EEF0A3EFF0125F
:0504A90009A90203FC9B
:100D7300120B06900090E0FBA3E0FAA3E0F9020B4C
:010D8300A4CB
:100AC90090008DEBF0A3EAF0A3E9F090008DE0FB34
:100AD900A3E0FAA3E0F9120D8CEF701312080AAD26
:100AE9000790008DE0FBA3E0FAA3E0F9120A8290D7
:0D0AF900008DE0FBA3E0FAA3E0F9020B3F43
:0B09F20090008DEBF0A3EAF0A3E9F009
:1009FD00E4A3F0120DDD900090EFF0120D0B120D2F
:100A0D002BEF6018900090E0FF120D0BAD079000DA
:100A1D008DE0FBA3E0FAA3E0F9120B74900090E0D7
:0C0A2D00FF120DA8EF60037F00227F0184
:010A3900229A
:0B0A3A0090008DEBF0A3EAF0A3E9F0C0
:100A4500E4A3F0120DD7900090EFF0120CEB120D0D
:100A55002BEF6018900090E0FF120CEBAD079000B3
:100A65008DE0FBA3E0FAA3E0F9120B74900090E08F
:0C0A7500FF120D9DEF60037F00227F0147
:010A81002252
:100D2B00EF64016012EF6402600DEF64036008EF83
:0A0D3B00640460037F00227F0122A0
:100D5D00EF1FAA0670011E4A600BE4FDEDC3940D52
:050D6D0050EE0D80F7BF
:010D7200225E
:090DBE00D288D2A8D2AFD2B22231
:060DD700900198E0FF22EC
:0B0D9D00EFB445047F0180027F0022BC
:100CEB00EF24BE600F24F8601124F8600A243670DC
:100CFB000C7F01227F03227F02227F04227F0022AE
:0300030002025E98
:10025E00C0E0C0F0C083C082C0D075D000C000C066
:0D026E0001C002C003C004C005C006C007E7
:10027B00900195E4F030B2030203BE9000DB7403EF
:10028B00F0A374E8F020B226D39000DCE094009049
:10029B0000DBE0940040177F017E00120D5D9000A3
:1002AB00DCE024FFF09000DBE034FFF080D720B2DD
:1002BB00030203BE9000DB7401F0A374F4F030B2C0
:1002CB0026D39000DCE094009000DBE09400401714
:1002DB007F017E00120D5D9000DCE024FFF09000AA
:1002EB00DBE034FFF080D79000DAE4F09000D9E443
:1002FB00F09000DBE4F0A3743CF020B226D3900026
:10030B00DCE094009000DBE0940040177F017E005E
:10031B00120D5D9000DCE024FFF09000DBE034FF79
:10032B00F080D79000DB7401F0A374F4F030B23797
:10033B00D39000DCE094009000DBE0940040287F39
:10034B00017E00120D5D900195E004F09000DCE061
:10035B0024FFF09000DBE034FFF0900195E0D394A4
:10036B001E40CAD2A8804C9000DAE0FF2496F5829A
:10037B00E43401F583E0C313F0900195E0C39408D6
:10038B00400E74962FF582E43401F583E04480F03F
:10039B00900195E4F09000D9E004F0E0C39408508C
:1003AB00030202FC9000DAE004F0E0C39404500373
:0303BB000202F744
:1003BE00D007D006D005D004D003D002D001D00093
:0B03CE00D0D0D082D083D0F0D0E0323D
:030DDD00AFB02292
:100D0B00EF2481601524C0600B24E0600A24E4709A
:100D1B000C7F01227F02227F03227F04227F00228D
:0B0DA800EFB4FE047F0180027F0022F8
:0C0D9100ED1475F008A4FDEF142DFF22F6
:100D4500EF540704900099F0EF131313541F04A3F5
:070D5500F07B017A0079999F
:010D5C002274
:100B06009000937405F0A304F07401120175F58248
:100B1600758300E4120187C003C002C00178987C87
:100B2600007D017B017A0079937E007F021200D658
:090B3600D001D002D003020BFF34
:100BFF00E94A7002FF22C003C002C001789D7C0049
:100C0F007D017B017A0079987E007F021200D6D099
:0B0C1F0001D002D0031209097F01225E
:1009090090009AEBF0A3EAF0A3E9F090009AE0FBDB
:10091900A3E0FAA3E0F990000112011575F002A411
:10092900FFE92402F9E43AFAE92FF9EA35F0A801D6
:10093900FCAD037B017A00799D7E007F021200D60F
:1009490090009AE0FBA3E0FAA3E0F990000174019A
:0309590002014256
:080DC700E92402F9E43AFA22E2
:100B74001200FCFFB40105ED64026023EFB402052A
:100B8400ED6401601A1200FCB40305ED6404600F07
:100B94001200FCB40405ED64036004ED1201752237
:0B04AE0090008DEBF0A3EAF0A3E9F052
:1004B900900002120115900093F0900003120115AB
:1004C900900094F0A37401F0900090E0FBA3E0FA8F
:1004D900A3E0F94A6040900001120115FF900093D2
:1004E900E06F7032900002120115FF900094E0B5A0
:1004F900072490008DE0FBA3E0FAA3E0F990000146
:100509007401120142900090E0FBA3E0FAA3E0F924
:10051900120C2A7F002290008DE0FBA3E0FAA3E0F1
:10052900F9900001120115FF900095E0FEC39F505C
:1005390034EE75F002A4FFE92FF9EA35F0FA9000DC
:1005490002120115FF900093E0B507119000031204
:100559000115FF900094E0B507037F0122900095F3
:07056900E004F080B17F0007
:010570002268
:0B05710090008DEBF0A3EAF0A3E9F08E
:10057C0090000112011514900090F0900090E0FF93
:10058C00C394014076EF75F002A4FFAEF090008D9D
:10059C00E0FBA3E0FAA3E02FF9EA3EFAC003C002A5
:1005AC00C00190008DA3E0FAA3E02402F9E43AFA2A
:1005BC00E92FF9EA3EA801FCAD03D001D002D0032B
:1005CC007E007F021200D690008DE0FBA3E0FAA320
:1005DC00E02402F9E43AFAA3E075F002A429F9EA5E
:1005EC0035F0FA78917C007D017E007F021200D6F6
:1005FC00120CA7900090E014F0808090008DE0FB2E
:10060C00A3E0FAA3E0F912063390008DE0FBA3E01F
:10061C00FAA3E0F9120DC778917C007D017E007F72
:07062C00021200D6020CA728
:0B063300900091EBF0A3EAF0A3E9F0C7
:10063E00120DC7A3EBF0A3EAF0A3E9F0900091E04E
:10064E00FBA3E0FAA3E0F91200FC24FE602814607C
:10065E004814606024037079900094E0FBA3E0FAE4
:10066E00A3E0F9900001120115FFB401047F088088
:10067E0021EF14FF801C900094E0FBA3E0FAA3E0AE
:10068E00F9900001120115FFB408047F018003EFF9
:10069E0004FF900001EF020187900094E0FBA3E0BD
:1006AE00FAA3E0F91200FCFFB401047F08801EEFEC
:1006BE0014FF8019900094E0FBA3E0FAA3E0F91276
:1006CE0000FCFFB408047F018003EF04FFEF12016A
:0106DE0075A6
:0106DF0022F8
:100BA400900093EBF0A3EAF0A3E9F0900093E0FB4C
:100BB400A3E0FAA3E0F9740112017512080AAD0763
:0E0BC400900093E0FBA3E0FAA3E0F9020A829E
:10080A00E4900098F0900096F0E4900097F0900041
:10081A0097E0FFC39408504E900096E0FD75F008EB
:10082A00A42405F582E43401F583E5822FF582E4F8
:10083A003583F583E07027900097E02401FFE433C5
:10084A00FEED2401FDE433FC120D91900098E0FEC8
:10085A0004F074992EF582E43400F583EFF09000E9
:10086A0097E004F080A8900096E004F0E0C39408B2
:10087A00409712095C900098E0FD7C001201BB745D
:0B088A00992DF58274003CF583E0FF1F
:010895002240
:100A8200900096EBF0A3EAF0A3E9F0AF05120D4552
:100A9200C003C002C001900096E0FBA3E0FAA3E00D
:100AA2002401F9E43AA801FCAD03D001D002D0033D
:100AB2007E007F021200D6900096E0FBA3E0FAA32C
:070AC200E0F9740102017567
:100C2A00900096EBF0A3EAF0A3E9F0900096120D7B
:100C3A0084EF7002FF22900096E0FBA3E0FAA3E0A3
:0B0C4A00F9E4120175120C7E7F0122FC
:080D8400E0FBA3E0FAA3E0F993
:050D8C001200FCFF2233
:100B3F00900090EBF0A3EAF0A3E9F0900090120D73
:100B4F0084EF6020900090E0FBA3E0FAA3E0240183
:100B5F00F9E43AFA78937C007D017E007F0212005F
:050B6F00D6120CC922A2
:080DCF007FBFDFEFF7FBFDFE23
:100BD200602800DD000000181800000000003C241E
:100BE200243C0000007E424242427E00FF8181811D
:0C0BF200818181FF000000000000000075
:100C5500E4FFE4FEEF75F008A42405F582E4340111
:100C6500F583E5822EF582E43583F583E4F00EEE17
:080C7500B408E10FEFB408DA46
:010C7D002254
:100C7E00E4FFE4FEEF75F008A42455F582E4340198
:100C8E00F583E5822EF582E43583F583E4F00EEEEE
:080C9E00B408E10FEFB408DA1D
:010CA600222B
:0A0DB3007F0890014DE4F0A3DFFC7F
:010DBD002213
:100CA700900091E0FFA3E075F008A424FCF582E42E
:100CB7003400F583E5822FF582E43583F5837401EB
:020CC700F02219
:100CC900900093E0FFA3E075F008A4244CF582E4BA
:100CD9003401F583E5822FF582E43583F5837401C8
:020CE900F022F7
:1006E000120DB3E4FFE4FE744D2FF582E43401F5FE
:1006F00083C083C082E0FDEE75F008A42405F58276
:10070000E43401F583E5822FF582E43583F583E057
:10071000FCED4CD082D083F074452FF582E4340197
:10072000F583C083C082E0FDEE75F008A42455F582
:1007300082E43401F583E5822FF582E43583F58385
:10074000E0FCED4CD082D083F0EEC39407501C74D3
:100750004D2FF582E43401F583E025E0F074452F58
:10076000F582E43401F583E025E0F00EEE640860E4
:0D077000030206E70FEF640860030206E5D0
:01077D002259
:1009A900E490008DF0D3EF9400EE64809480403899
:1009B900E4FD75A0FF7590FF744D2DF582E43401B7
:1009C900F583E0F580ED900DCF93FCF5A074452DEE
:1009D900F582E43401F583E0F5808C900DEDB408DF
:0809E900D1EF1F70C01E80BD9C
:0109F10022E3
:0508960090008DEFF061
:10089B0075A0FFE4A3F090008DE0900090F0900025
:1008AB0090E0D39400404AE490008FF090008FE0EA
:1008BB00FF90008EE075F008A424DDF582E434008F
:1008CB00F583E5822FF582E43583F583E0F580EF40
:1008DB00900DCF93F5907F017E00120D5D90008FF0
:1008EB00E004F0E0C3940840C3900090E014F08063
:0D08FB00AD90008EE004F0E0C3940540993C
:0109080022CC
:10078A000203D9E493A3F8E493A34003F68001F2A9
:10079A0008DFF48029E493A3F85407240CC8C33370
:1007AA00C4540F4420C8834004F456800146F6DF3F
:1007BA00E4800B0102040810204080900BD2E47EF2
:1007CA00019360BCA3FF543F30E509541FFEE49334
:1007DA00A360010ECF54C025E060A840B8E493A3FB
:1007EA00FAE493A3F8E493A3C8C582C8CAC583CA26
:1007FA00F0A3C8C582C8CAC583CADFE9DEE780BEDE
:010BFE0000F6
:10000600E709F608DFFA8046E709F208DFFA803EDC
:1000160088828C83E709F0A3DFFA8032E309F608C9
:10002600DFFA8078E309F208DFFA807088828C8331
:10003600E309F0A3DFFA806489828A83E0A3F608E5
:10004600DFFA805889828A83E0A3F208DFFA804CBF
:1000560080D280FA80C680D4806980F28033801096
:1000660080A680EA809A80A880DA80E280CA8033FF
:1000760089828A83ECFAE493A3C8C582C8CCC58377
:10008600CCF0A3C8C582C8CCC583CCDFE9DEE78047
:100096000D89828A83E493A3F608DFF9ECFAA9F0C6
:1000A600EDFB2289828A83ECFAE0A3C8C582C8CC1C
:1000B600C583CCF0A3C8C582C8CCC583CCDFEADE35
:1000C600E880DB89828A83E493A3F208DFF980CC97
:1000D60088F0EF60010E4E60C388F0ED2402B40490
:1000E6000050B9F582EB2402B4040050AF23234537
:0600F60082239000567306
:1000FC00BB010689828A83E0225002E722BBFE0202
:09010C00E32289828A83E4932234
:10011500BB010CE58229F582E5833AF583E022509F
:1001250006E92582F8E622BBFE06E92582F8E222E9
:0D013500E58229F582E5833AF583E4932203
:10014200BB010FF8E58229F582E5833AF583E028C1
:10015200F0225009C58229F8E58226F622BBFE0963
:10016200C58229F8E22582F222F8EA2583F583E99D
:03017200932822AD
:10017500BB010689828A83F0225002F722BBFE0169
:02018500F32263
:10018700F8BB010DE58229F582E5833AF583E8F0AE
:10019700225006E92582C8F622BBFE05E92582C85A
:0201A700F22242
:1001A900EF8DF0A4A8F0CF8CF0A428CE8DF0A42E6A
:0201B900FE2224
:1001BB00C2D5EC30E709B2D5E4C39DFDE49CFCEE5F
:1001CB0030E715B2D5E4C39FFFE49EFE1201F1C3E5
:1001DB00E49DFDE49CFC80031201F130D507C3E4E0
:0601EB009FFFE49EFE22CE
:10095C0090019C1202467810EC4D4E4F70047CA511
:10096C007DA5C3EC13FCED13FDEE13FEEF13FF504E
:10097C0010EC64CCFCED644CFDEE644EFEEF64CEEA
:10098C00FFD8DF90019C120252EE547FFE229001A0
:0D099C009CEEF0EFA3F0A374A5F0A3F022F1
:1001F100BC000BBE0029EF8DF084FFADF022E4CCF2
:10020100F875F008EF2FFFEE33FEEC33FCEE9DECBA
:10021100984005FCEE9DFE0FD5F0E9E4CEFD22ED00
:10022100F8F5F0EE8420D21CFEADF075F008EF2F4A
:10023100FFED33FD4007985006D5F0F222C398FD3B
:050241000FD5F0EA22D8
:0C024600E0FCA3E0FDA3E0FEA3E0FF222B
:0C025200ECF0A3EDF0A3EEF0A3EFF0221F
:00000001FF
