:03000000020A13DE
:0C0A1300787FE4F6D8FD758107020249E7
:10024900E4900000F07B0190008904F0A37400F0B1
:10025900A37483F080211208FC120925120A469022
:100269000000EFF0BFFE199000897401F0A374003B
:10027900F0A37483F07B017A007901120A0280D617
:10028900900000E0FF120992EF600E7B017A00797D
:1002990001900000E0FD1208497B017A0079011202
:1002A900049D7B017A007901120A36788A7C007DE7
:1002B900017E007F021200D312094E7B017A007978
:1002C900831209E5EF700E1205DFAD077B017A0095
:1002D90079831206BE7B017A00798312081412050C
:1002E900417FE87E0312075D9000897401F0A374D1
:1002F90000F0A37483F07B017A007901120328EFDF
:10030900700302025F9000897401F0A37400F0A3E6
:0F0319007483F07B017A007901120A0202025FFD
:100A02001207DD900089E0FBA3E0FAA3E0F90208F7
:010A1200796A
:10099200EF64FB6012EF64BF600DEF64DF6008EF8D
:0A09A200647F60037F00227F0122C2
:1009AC00D3EF9400EE9400400F7D267C0DDCFEDD31
:0809BC00FAEF1F70EB1E80E84A
:0109C4002210
:030A4600AF90224C
:1009F000900167E01475F008A4FF900166E0142FE1
:020A0000FF22D3
:0C0A1F00ED1475F008A4FDEF142DFF226B
:1009C500EF540704900093F0EF131313541F04A37F
:0709D500F07B017A00799329
:0109DC0022F8
:1007DD0090008C7405F0A304F074FB12017290006C
:1007ED0001E4120184C003C002C00178917C007D38
:1007FD00017B017A00798C7E007F021200D3D0013B
:07080D00D002D0030208A68F
:1008A600E94A7002FF22C003C002C00178967C00AC
:1008B6007D017B017A0079917E007F021200D3D000
:0B08C60001D002D00312066B7F01225C
:10066B00900093EBF0A3EAF0A3E9F0900093E0FB8A
:10067B00A3E0FAA3E0F990000112011275F002A4B5
:10068B00FFE92402F9E43AFAE92FF9EA35F0A80177
:10069B00FCAD037B017A0079967E007F021200D3BA
:1006AB00900093E0FBA3E0FAA3E0F9900001740142
:0306BB0002013FFA
:080A3600E92402F9E43AFA2276
:100849001200F9FFB4FB05ED64BF6023EFB4BF05E7
:10085900ED64FB601A1200F9B4DF05ED647F600FE7
:100869001200F9B47F05ED64DF6004ED1201722214
:0B032800900086EBF0A3EAF0A3E9F0E0
:1003330090000212011290008CF09000031201123F
:1003430090008DF0A37401F0900089E0FBA3E0FA24
:10035300A3E0F94A6040900001120112FF90008C63
:10036300E06F7032900002120112FF90008DE0B531
:100373000724900086E0FBA3E0FAA3E0F9900001D4
:10038300740112013F900089E0FBA3E0FAA3E0F9B6
:100393001208D17F0022900086E0FBA3E0FAA3E0DD
:1003A300F9900001120112FF90008EE0FEC39F50EE
:1003B30034EE75F002A4FFE92FF9EA35F0FA900064
:1003C30002120112FF90008CE0B507119000031296
:1003D3000112FF90008DE0B507037F012290008E8C
:0703E300E004F080B17F008F
:0103EA0022F0
:0B049D00900086EBF0A3EAF0A3E9F06A
:1004A80090000112011214900089F0900089E0FF79
:1004B800C394014076EF75F002A4FFAEF090008679
:1004C800E0FBA3E0FAA3E02FF9EA3EFAC003C0027A
:1004D800C001900086A3E0FAA3E02402F9E43AFA06
:1004E800E92FF9EA3EA801FCAD03D001D002D00300
:1004F8007E007F021200D3900086E0FBA3E0FAA3FF
:10050800E02402F9E43AFAA3E075F002A429F9EA32
:1005180035F0FA788A7C007D017E007F021200D3D4
:1005280012094E900089E014F08080900086E0FB6C
:09053800A3E0FAA3E0F90203EBD1
:0B03EB0090008AEBF0A3EAF0A3E9F019
:1003F6002402F9E43AFAA3EBF0A3EAF0A3E9F090B9
:10040600008AE0FBA3E0FAA3E0F91200F924816078
:100416006824C0602624E0604524E4707990008D4D
:10042600E0FBA3E0FAA3E0F9900001120112FFB489
:1004360001047F088021EF14FF801C90008DE0FBF3
:10044600A3E0FAA3E0F9900001120112FFB4080438
:100456007F018003EF04FF900001EF02018490000A
:100466008DE0FBA3E0FAA3E0F91200F9FFB4010462
:100476007F08801EEF14FF801990008DE0FBA3E03B
:10048600FAA3E0F91200F9FFB408047F018003EF34
:0604960004FFEF120172E9
:01049C00223D
:1008790090008CEBF0A3EAF0A3E9F090008CE0FB88
:10088900A3E0FAA3E0F9E41201721205DFAD0790C3
:0D089900008CE0FBA3E0FAA3E0F90206BE2C
:1005DF00E49000D1F090008FF0E4900090F0900044
:1005EF0090E0FFC39408504E90008FE0FD75F00827
:1005FF00A4241AF582E43401F583E5822FF582E411
:10060F003583F583E07027900090E02401FFE433F9
:10061F00FEED2401FDE433FC120A1F9000D1E0FE31
:10062F0004F074912EF582E43400F583EFF090001E
:10063F0090E004F080A890008FE004F0E0C39408ED
:10064F0040971207109000D1E0FD7C001201A674B4
:0B065F00912DF58274003CF583E0FF54
:01066A00226D
:1006BE0090008FEBF0A3EAF0A3E9F0A3EDF0FF12A8
:1006CE0009C51200F9FF90008FE0FBA3E0FAA3E04A
:1006DE00F9900001EF120184900092E0FF1209C51B
:1006EE00E92401F9E43AFA1200F9FF90008FE0FBD9
:1006FE00A3E0FAA3E0F9900002EF12018474010264
:02070E00017276
:1008D10090008FEBF0A3EAF0A3E9F090008F1209EA
:1008E100DDEF7002FF2290008FE0FBA3E0FAA3E0AE
:0B08F100F9E41201721209257F0122B8
:0809DD00E0FBA3E0FAA3E0F93E
:0B09E5001200F97003FF80027F012266
:10081400900086EBF0A3EAF0A3E9F09000861209B9
:10082400DDEF6020900086E0FBA3E0FAA3E0F990FE
:100834000001120112FF7E00900002120112FD7CE1
:05084400001207A422D0
:080A3E007FBFDFEFF7FBFDFEB7
:1008FC00E4FFE4FEEF75F008A4241AF582E4340159
:10090C00F583E5822EF582E43583F583E4F00EEE73
:08091C00B408E10FEFB408DAA2
:0109240022B0
:10092500E4FFE4FEEF75F008A424DAF582E4340070
:10093500F583E5822EF582E43583F583E4F00EEE4A
:08094500B408E10FEFB408DA79
:01094D002287
:0A0A2B007F089000D2E4F0A3DFFC86
:010A3500229E
:10094E0090008AE0FFA3E075F008A42411F582E47C
:10095E003401F583E5822FF582E43583F583740146
:02096E00F02275
:10097000900168E0FFA3E075F008A424D1F582E4BB
:100980003400F583E5822FF582E43583F583740125
:02099000F02253
:1007A400900089EEF0A3EFF0AE04ED7803C333CEEE
:1007B40033CED8F924D1F58274003EF583C083C0CA
:1007C40082900089E0FEA3E0D082D0832582F58266
:0907D400E5833EF5837401F02277
:10054100120A2BE4FFE4FE74D22FF582E43400F5A5
:1005510083C083C082E0FDEE75F008A4241AF58201
:10056100E43401F583E5822FF582E43583F583E0F8
:10057100FCED4CD082D083F0745A2FF582E4340123
:10058100F583C083C082E0FDEE75F008A424DAF59E
:1005910082E43400F583E5822FF582E43583F58327
:1005A100E0FCED4CD082D083F0EEC39407501C7474
:1005B100D22FF582E43400F583E025E0F0745A2F60
:1005C100F582E43401F583E025E0F00EEE64086085
:0D05D100030205480FEF64086003020546B1
:0105DE0022FA
:10075D00E4900086F0D3EF9400EE94004038E4FD71
:10076D0075A0FF75B0FF74D22DF582E43400F583CA
:10077D00E0F580ED900A3E93FCF5A0745A2DF582BC
:10078D00E43401F583E0F5808CB00DEDB408D1EFC4
:06079D001F70C21E80BFA8
:0107A3002233
:10000300E709F608DFFA8046E709F208DFFA803EDF
:1000130088828C83E709F0A3DFFA8032E309F608CC
:10002300DFFA8078E309F208DFFA807088828C8334
:10003300E309F0A3DFFA806489828A83E0A3F608E8
:10004300DFFA805889828A83E0A3F208DFFA804CC2
:1000530080D280FA80C680D4806980F28033801099
:1000630080A680EA809A80A880DA80E280CA803302
:1000730089828A83ECFAE493A3C8C582C8CCC5837A
:10008300CCF0A3C8C582C8CCC583CCDFE9DEE7804A
:100093000D89828A83E493A3F608DFF9ECFAA9F0C9
:1000A300EDFB2289828A83ECFAE0A3C8C582C8CC1F
:1000B300C583CCF0A3C8C582C8CCC583CCDFEADE38
:1000C300E880DB89828A83E493A3F208DFF980CC9A
:1000D30088F0EF60010E4E60C388F0ED2402B40493
:1000E3000050B9F582EB2402B4040050AF2323453A
:0600F3008223900053730C
:1000F900BB010689828A83E0225002E722BBFE0205
:09010900E32289828A83E4932237
:10011200BB010CE58229F582E5833AF583E02250A2
:1001220006E92582F8E622BBFE06E92582F8E222EC
:0D013200E58229F582E5833AF583E4932206
:10013F00BB010FF8E58229F582E5833AF583E028C4
:10014F00F0225009C58229F8E58226F622BBFE0966
:10015F00C58229F8E22582F222F8EA2583F583E9A0
:03016F00932822B0
:10017200BB010689828A83F0225002F722BBFE016C
:02018200F32266
:10018400F8BB010DE58229F582E5833AF583E8F0B1
:10019400225006E92582C8F622BBFE05E92582C85D
:0201A400F22245
:1001A600C2D5EC30E709B2D5E4C39DFDE49CFCEE74
:1001B60030E715B2D5E4C39FFFE49EFE1201DCC30F
:1001C600E49DFDE49CFC80031201DC30D507C3E40A
:0601D6009FFFE49EFE22E3
:100710009001621202317810EC4D4E4F70047CA5AE
:100720007DA5C3EC13FCED13FDEE13FEEF13FF509C
:1007300010EC64CCFCED644CFDEE644EFEEF64CE38
:10074000FFD8DF90016212023DEE547FFE2290013D
:0D07500062EEF0EFA3F0A374A5F0A3F02279
:1001DC00BC000BBE0029EF8DF084FFADF022E4CC07
:1001EC00F875F008EF2FFFEE33FEEC33FCEE9DECD0
:1001FC00984005FCEE9DFE0FD5F0E9E4CEFD22ED16
:10020C00F8F5F0EE8420D21CFEADF075F008EF2F5F
:10021C00FFED33FD4007985006D5F0F222C398FD50
:05022C000FD5F0EA22ED
:0C023100E0FCA3E0FDA3E0FEA3E0FF2240
:0C023D00ECF0A3EDF0A3EEF0A3EFF02234
:00000001FF
