:0300000002076292
:0C076200787FE4F6D8FD7581070207A936
:10055E009000007403F0A374E8F0A37401F0A37488
:10056E00F4F0A3E4F0A37432F0120DB6803D120C39
:10057E0039120C6290008E7401F0A37400F0A37413
:10058E0088F07B017A0079061203D9EF70187B018F
:10059E007A0079061209D6EF600C7B017A00790693
:1005AE00120A1EEF701E7FF412087A90008E7401EC
:1005BE00F0A37400F0A37488F07B017A0079061220
:1005CE000D6B80AA7B017A00790612049C7B017A5E
:1005DE00007988120AAD1206C4900007E0FF7E0073
:1005EE00900004E0FCA3E0FD1201A9C3900001E01D
:1005FE009FFF900000E09EFE900002E0FCA3E0FD55
:09060E00120D5712098D02057C42
:100D6B00120AEA90008EE0FBA3E0FAA3E0F9020B73
:010D7B0088EF
:100AAD0090008BEBF0A3EAF0A3E9F090008BE0FB54
:100ABD00A3E0FAA3E0F9120D84EF70131207EEAD67
:100ACD000790008BE0FBA3E0FAA3E0F9120A669011
:0D0ADD00008BE0FBA3E0FAA3E0F9020B237D
:0B09D60090008BEBF0A3EAF0A3E9F027
:1009E100E4A3F0120DD590008EEFF0120CEF120D72
:1009F1000FEF601890008EE0FF120CEFAD07900032
:100A01008BE0FBA3E0FAA3E0F9120B5890008EE013
:0C0A1100FF120DA0EF60037F00227F01A8
:010A1D0022B6
:0B0A1E0090008BEBF0A3EAF0A3E9F0DE
:100A2900E4A3F0120DCF90008EEFF0120CCF120D4F
:100A39000FEF601890008EE0FF120CCFAD07900009
:100A49008BE0FBA3E0FAA3E0F9120B5890008EE0CB
:0C0A5900FF120D95EF60037F00227F016B
:010A6500226E
:100D0F00EF64016012EF6402600DEF64036008EF9F
:0A0D1F00640460037F00227F0122BC
:100D4100EF1FAA0670011E4A600BE4FDEDC3940D6E
:050D510050EE0D80F7DB
:010D5600227A
:100D5700D3EF9DEC6480F8EE64809840028004AE87
:040D670004AF0522AE
:090DB600D288D2A8D2AFD2B22239
:060DCF00900196E0FF22F6
:0B0D9500EFB445047F0180027F0022C4
:100CCF00EF24BE600F24F8601124F8600A243670F8
:100CDF000C7F01227F03227F02227F04227F0022CA
:0300030002025E98
:10025E00C0E0C0F0C083C082C0D075D000C000C066
:0D026E0001C002C003C004C005C006C007E7
:10027B00900193E4F030B2030203BE9000D97403F3
:10028B00F0A374E8F020B226D39000DAE09400904B
:10029B0000D9E0940040177F017E00120D419000C1
:1002AB00DAE024FFF09000D9E034FFF080D720B2E1
:1002BB00030203BE9000D97401F0A374F4F030B2C2
:1002CB0026D39000DAE094009000D9E09400401718
:1002DB007F017E00120D419000DAE024FFF09000C8
:1002EB00D9E034FFF080D79000D8E4F09000D7E449
:1002FB00F09000D9E4F0A3743CF020B226D3900028
:10030B00DAE094009000D9E0940040177F017E0062
:10031B00120D419000DAE024FFF09000D9E034FF99
:10032B00F080D79000D97401F0A374F4F030B23799
:10033B00D39000DAE094009000D9E0940040287F3D
:10034B00017E00120D41900193E004F09000DAE081
:10035B0024FFF09000D9E034FFF0900193E0D394A8
:10036B001E40CAD2A8804C9000D8E0FF2494F5829E
:10037B00E43401F583E0C313F0900193E0C39408D8
:10038B00400E74942FF582E43401F583E04480F041
:10039B00900193E4F09000D7E004F0E0C394085090
:1003AB00030202FC9000D8E004F0E0C39404500375
:0303BB000202F744
:1003BE00D007D006D005D004D003D002D001D00093
:0B03CE00D0D0D082D083D0F0D0E0323D
:030DD500AFB0229A
:100CEF00EF2481601524C0600B24E0600A24E470B7
:100CFF000C7F01227F02227F03227F04227F0022AA
:0B0DA000EFB4FE047F0180027F002200
:0C0D8900ED1475F008A4FDEF142DFF22FE
:100D2900EF540704900097F0EF131313541F04A313
:070D3900F07B017A007997BD
:010D40002290
:100AEA009000917405F0A304F07401120175F58267
:100AFA00758300E4120187C003C002C00178967CA6
:100B0A00007D017B017A0079917E007F021200D676
:090B1A00D001D002D003020BE36C
:100BE300E94A7002FF22C003C002C001789B7C0067
:100BF3007D017B017A0079967E007F021200D6D0B8
:0B0C030001D002D0031208ED7F012297
:1008ED00900098EBF0A3EAF0A3E9F0900098E0FBFC
:1008FD00A3E0FAA3E0F990000112011575F002A42E
:10090D00FFE92402F9E43AFAE92FF9EA35F0A801F2
:10091D00FCAD037B017A00799B7E007F021200D62D
:10092D00900098E0FBA3E0FAA3E0F99000017401B8
:03093D0002014272
:080DBF00E92402F9E43AFA22EA
:100B58001200FCFFB40105ED64026023EFB4020546
:100B6800ED6401601A1200FCB40305ED6404600F23
:100B78001200FCB40405ED64036004ED1201752253
:0B03D90090008BEBF0A3EAF0A3E9F02A
:1003E400900002120115900091F090000312011583
:1003F400900092F0A37401F090008EE0FBA3E0FA69
:10040400A3E0F94A6040900001120115FF900091A9
:10041400E06F7032900002120115FF900092E0B577
:10042400072490008BE0FBA3E0FAA3E0F99000011D
:10043400740112014290008EE0FBA3E0FAA3E0F9FC
:10044400120C0E7F002290008BE0FBA3E0FAA3E0E5
:10045400F9900001120115FF900093E0FEC39F5034
:1004640034EE75F002A4FFE92FF9EA35F0FA9000B2
:1004740002120115FF900091E0B5071190000312DC
:100484000115FF900092E0B507037F0122900093CD
:07049400E004F080B17F00DD
:01049B00223E
:0B049C0090008BEBF0A3EAF0A3E9F066
:1004A7009000011201151490008EF090008EE0FF6D
:1004B700C394014076EF75F002A4FFAEF090008B75
:1004C700E0FBA3E0FAA3E02FF9EA3EFAC003C0027B
:1004D700C00190008BA3E0FAA3E02402F9E43AFA02
:1004E700E92FF9EA3EA801FCAD03D001D002D00301
:1004F7007E007F021200D690008BE0FBA3E0FAA3F8
:10050700E02402F9E43AFAA3E075F002A429F9EA33
:1005170035F0FA788F7C007D017E007F021200D6CD
:10052700120C8B90008EE014F0808090008BE0FB23
:10053700A3E0FAA3E0F912061790008BE0FBA3E013
:10054700FAA3E0F9120DBF788F7C007D017E007F52
:07055700021200D6020C8B1A
:0B06170090008FEBF0A3EAF0A3E9F0E5
:10062200120DBFA3EBF0A3EAF0A3E9F090008FE074
:10063200FBA3E0FAA3E0F91200FC24FE6028146098
:100642004814606024037079900092E0FBA3E0FA02
:10065200A3E0F9900001120115FFB401047F0880A4
:1006620021EF14FF801C900092E0FBA3E0FAA3E0CC
:10067200F9900001120115FFB408047F018003EF15
:1006820004FF900001EF020187900092E0FBA3E0DB
:10069200FAA3E0F91200FCFFB401047F08801EEF08
:1006A20014FF8019900092E0FBA3E0FAA3E0F91294
:1006B20000FCFFB408047F018003EF04FFEF120186
:0106C20075C2
:0106C3002214
:100B8800900091EBF0A3EAF0A3E9F0900091E0FB6C
:100B9800A3E0FAA3E0F974011201751207EEAD079C
:0E0BA800900091E0FBA3E0FAA3E0F9020A66D8
:1007EE00E4900096F0900094F0E4900095F0900064
:1007FE0095E0FFC39408504E900094E0FD75F0080C
:10080E00A42403F582E43401F583E5822FF582E416
:10081E003583F583E07027900095E02401FFE433E3
:10082E00FEED2401FDE433FC120D89900096E0FEEE
:10083E0004F074972EF582E43400F583EFF0900007
:10084E0095E004F080A8900094E004F0E0C39408D2
:10085E004097120940900096E0FD7C001201BB7497
:0B086E00972DF58274003CF583E0FF3D
:01087900225C
:100A6600900094EBF0A3EAF0A3E9F0AF05120D298C
:100A7600C003C002C001900094E0FBA3E0FAA3E02B
:100A86002401F9E43AA801FCAD03D001D002D00359
:100A96007E007F021200D6900094E0FBA3E0FAA34A
:070AA600E0F9740102017583
:100C0E00900094EBF0A3EAF0A3E9F0900094120D9B
:100C1E007CEF7002FF22900094E0FBA3E0FAA3E0C9
:0B0C2E00F9E4120175120C627F012234
:080D7C00E0FBA3E0FAA3E0F99B
:050D84001200FCFF223B
:100B230090008EEBF0A3EAF0A3E9F090008E120D93
:100B33007CEF602090008EE0FBA3E0FAA3E02401A9
:100B4300F9E43AFA78917C007D017E007F0212007D
:050B5300D6120CAD22DA
:080DC7007FBFDFEFF7FBFDFE2B
:100BB600602800DB000000181800000000003C243C
:100BC600243C0000007E424242427E00FF81818139
:0C0BD600818181FF000000000000000091
:100C3900E4FFE4FEEF75F008A42403F582E434012F
:100C4900F583E5822EF582E43583F583E4F00EEE33
:080C5900B408E10FEFB408DA62
:010C61002270
:100C6200E4FFE4FEEF75F008A42453F582E43401B6
:100C7200F583E5822EF582E43583F583E4F00EEE0A
:080C8200B408E10FEFB408DA39
:010C8A002247
:0A0DAB007F0890014BE4F0A3DFFC89
:010DB500221B
:100C8B0090008FE0FFA3E075F008A424FAF582E44E
:100C9B003400F583E5822FF582E43583F583740107
:020CAB00F02235
:100CAD00900091E0FFA3E075F008A4244AF582E4DA
:100CBD003401F583E5822FF582E43583F5837401E4
:020CCD00F02213
:1006C400120DABE4FFE4FE744B2FF582E43401F524
:1006D40083C083C082E0FDEE75F008A42403F58294
:1006E400E43401F583E5822FF582E43583F583E074
:1006F400FCED4CD082D083F074432FF582E43401B6
:10070400F583C083C082E0FDEE75F008A42453F5A0
:1007140082E43401F583E5822FF582E43583F583A1
:10072400E0FCED4CD082D083F0EEC39407501C74EF
:100734004B2FF582E43401F583E025E0F074432F78
:10074400F582E43401F583E025E0F00EEE64086000
:0D075400030206CB0FEF640860030206C924
:010761002275
:10098D00E490008BF0D3EF9400EE648094804038B7
:10099D00E4FD75A0FF7590FF744B2DF582E43401D5
:1009AD00F583E0F580ED900DC793FCF5A074432D14
:1009BD00F582E43401F583E0F5808C900DEDB408FB
:0809CD00D1EF1F70C01E80BDB8
:0109D50022FF
:05087A0090008BEFF07F
:10087F0075A0FFE4A3F090008BE090008EF0900045
:10088F008EE0D39400404AE490008DF090008DE00C
:10089F00FF90008CE075F008A424DBF582E43400AF
:1008AF00F583E5822FF582E43583F583E0F580EF5C
:1008BF00900DC793F5907F017E00120D4190008D32
:1008CF00E004F0E0C3940840C390008EE014F08081
:0D08DF00AD90008CE004F0E0C3940540995A
:0108EC0022E9
:10076E0002055EE493A3F8E493A34003F68001F23E
:10077E0008DFF48029E493A3F85407240CC8C3338C
:10078E00C4540F4420C8834004F456800146F6DF5B
:10079E00E4800B0102040810204080900BB6E47E2A
:1007AE00019360BCA3FF543F30E509541FFEE49350
:1007BE00A360010ECF54C025E060A840B8E493A317
:1007CE00FAE493A3F8E493A3C8C582C8CAC583CA42
:1007DE00F0A3C8C582C8CAC583CADFE9DEE780BEFA
:010BE2000012
:10000600E709F608DFFA8046E709F208DFFA803EDC
:1000160088828C83E709F0A3DFFA8032E309F608C9
:10002600DFFA8078E309F208DFFA807088828C8331
:10003600E309F0A3DFFA806489828A83E0A3F608E5
:10004600DFFA805889828A83E0A3F208DFFA804CBF
:1000560080D280FA80C680D4806980F28033801096
:1000660080A680EA809A80A880DA80E280CA8033FF
:1000760089828A83ECFAE493A3C8C582C8CCC58377
:10008600CCF0A3C8C582C8CCC583CCDFE9DEE78047
:100096000D89828A83E493A3F608DFF9ECFAA9F0C6
:1000A600EDFB2289828A83ECFAE0A3C8C582C8CC1C
:1000B600C583CCF0A3C8C582C8CCC583CCDFEADE35
:1000C600E880DB89828A83E493A3F208DFF980CC97
:1000D60088F0EF60010E4E60C388F0ED2402B40490
:1000E6000050B9F582EB2402B4040050AF23234537
:0600F60082239000567306
:1000FC00BB010689828A83E0225002E722BBFE0202
:09010C00E32289828A83E4932234
:10011500BB010CE58229F582E5833AF583E022509F
:1001250006E92582F8E622BBFE06E92582F8E222E9
:0D013500E58229F582E5833AF583E4932203
:10014200BB010FF8E58229F582E5833AF583E028C1
:10015200F0225009C58229F8E58226F622BBFE0963
:10016200C58229F8E22582F222F8EA2583F583E99D
:03017200932822AD
:10017500BB010689828A83F0225002F722BBFE0169
:02018500F32263
:10018700F8BB010DE58229F582E5833AF583E8F0AE
:10019700225006E92582C8F622BBFE05E92582C85A
:0201A700F22242
:1001A900EF8DF0A4A8F0CF8CF0A428CE8DF0A42E6A
:0201B900FE2224
:1001BB00C2D5EC30E709B2D5E4C39DFDE49CFCEE5F
:1001CB0030E715B2D5E4C39FFFE49EFE1201F1C3E5
:1001DB00E49DFDE49CFC80031201F130D507C3E4E0
:0601EB009FFFE49EFE22CE
:1009400090019A1202467810EC4D4E4F70047CA52F
:100950007DA5C3EC13FCED13FDEE13FEEF13FF506A
:1009600010EC64CCFCED644CFDEE644EFEEF64CE06
:10097000FFD8DF90019A120252EE547FFE229001BE
:0D0980009AEEF0EFA3F0A374A5F0A3F0220F
:1001F100BC000BBE0029EF8DF084FFADF022E4CCF2
:10020100F875F008EF2FFFEE33FEEC33FCEE9DECBA
:10021100984005FCEE9DFE0FD5F0E9E4CEFD22ED00
:10022100F8F5F0EE8420D21CFEADF075F008EF2F4A
:10023100FFED33FD4007985006D5F0F222C398FD3B
:050241000FD5F0EA22D8
:0C024600E0FCA3E0FDA3E0FEA3E0FF222B
:0C025200ECF0A3EDF0A3EEF0A3EFF0221F
:00000001FF
