:03000000020A1DD4
:0C0A1D00787FE4F6D8FD7581070205A57E
:1005A500E4900000F07B0190008904F0A37400F052
:1005B500A37483F07A0079011209FF120905120963
:1005C5002E7B017A00790112030C7B017A00798375
:1005D5001207A612047B7FE87E0312075F9000894D
:1005E5007401F0A37400F0A37483F07B017A0079A1
:1005F50001120249EF70197B0190008904F0A37480
:1006050000F0A37483F07A0079011206CEEF70AB87
:100615009000897401F0A37400F0A37483F07B014A
:090625007A0079011209FF8092AC
:1009FF001207E3900089E0FBA3E0FAA3E0F90208F5
:010A0F008165
:0B06CE00900086EBF0A3EAF0A3E9F037
:1006D900E490008CF0120A5B90008CEFF012099BF9
:1006E9001209BBEF601890008CE0FF12099BAD075F
:1006F900900086E0FBA3E0FAA3E0F912085190000C
:0E0709008CE0FF120A35EF60037F00227F01B3
:0107170022BF
:1007A600900086EBF0A3EAF0A3E9F0900086E0FB68
:1007B600A3E0FAA3E0F9120A18EF7013120519ADB7
:1007C60007900086E0FBA3E0FAA3E0F91207189071
:0D07D6000086E0FBA3E0FAA3E0F902081C96
:1009BB00EF64016012EF6402600DEF64036008EFF7
:0A09CB00640460037F00227F012214
:030A5B00AF902237
:10099B00EF2481601524C0600B24E0600A24E4700E
:1009AB000C7F01227F02227F03227F04227F002201
:0B0A3500EFB4FE047F0180027F00226E
:1009ED00900167E01475F008A4FF900166E0142FE4
:0209FD00FF22D7
:0C0A2900ED1475F008A4FDEF142DFF2261
:1009D500EF540704900092F0EF131313541F04A370
:0709E500F07B017A0079921A
:0109EC0022E8
:1007E30090008C7405F0A304F07401120172F58279
:1007F300758300E4120184C003C002C00178917CB8
:10080300007D017B017A00798C7E007F021200D388
:09081300D001D002D0030208AFAD
:1008AF00E94A7002FF22C003C002C00178967C00A3
:1008BF007D017B017A0079917E007F021200D3D0F7
:0B08CF0001D002D00312062E7F012290
:10062E00900093EBF0A3EAF0A3E9F0900093E0FBC7
:10063E00A3E0FAA3E0F990000112011275F002A4F2
:10064E00FFE92402F9E43AFAE92FF9EA35F0A801B4
:10065E00FCAD037B017A0079967E007F021200D3F7
:10066E00900093E0FBA3E0FAA3E0F990000174017F
:03067E0002013F37
:080A4B00E92402F9E43AFA2261
:100851001200F9FFB40105ED64026023EFB4020553
:10086100ED6401601A1200F9B40305ED6404600F30
:100871001200F9B40405ED64036004ED1201722263
:0B024900900086EBF0A3EAF0A3E9F0C0
:1002540090000212011290008CF09000031201121F
:1002640090008DF0A37401F0900089E0FBA3E0FA04
:10027400A3E0F94A6040900001120112FF90008C43
:10028400E06F7032900002120112FF90008DE0B511
:100294000724900086E0FBA3E0FAA3E0F9900001B4
:1002A400740112013F900089E0FBA3E0FAA3E0F996
:1002B4001208DA7F0022900086E0FBA3E0FAA3E0B4
:1002C400F9900001120112FF90008EE0FEC39F50CE
:1002D40034EE75F002A4FFE92FF9EA35F0FA900044
:1002E40002120112FF90008CE0B507119000031276
:1002F4000112FF90008DE0B507037F012290008E6C
:07030400E004F080B17F006E
:01030B0022CF
:0B030C00900086EBF0A3EAF0A3E9F0FC
:1003170090000112011214900089F0900089E0FF0B
:10032700C394014076EF75F002A4FFAEF09000860B
:10033700E0FBA3E0FAA3E02FF9EA3EFAC003C0020C
:10034700C001900086A3E0FAA3E02402F9E43AFA98
:10035700E92FF9EA3EA801FCAD03D001D002D00392
:100367007E007F021200D3900086E0FBA3E0FAA391
:10037700E02402F9E43AFAA3E075F002A429F9EAC5
:1003870035F0FA788A7C007D017E007F021200D367
:10039700120957900089E014F08080900086E0FBF6
:1003A700A3E0FAA3E0F91203CE900086E0FBA3E0F6
:1003B700FAA3E0F9120A4B788A7C007D017E007F60
:0703C700021200D3020957E6
:0B03CE0090008AEBF0A3EAF0A3E9F036
:1003D900120A4BA3EBF0A3EAF0A3E9F090008AE03C
:1003E900FBA3E0FAA3E0F91200F924FE60281460E7
:1003F900481460602403707990008DE0FBA3E0FA53
:10040900A3E0F9900001120112FFB401047F0880F2
:1004190021EF14FF801C90008DE0FBA3E0FAA3E01C
:10042900F9900001120112FFB408047F018003EF63
:1004390004FF900001EF02018490008DE0FBA3E02E
:10044900FAA3E0F91200F9FFB401047F08801EEF56
:1004590014FF801990008DE0FBA3E0FAA3E0F912E4
:1004690000F9FFB408047F018003EF04FFEF1201D4
:010479007210
:01047A00225F
:1008810090008CEBF0A3EAF0A3E9F090008CE0FB80
:10089100A3E0FAA3E0F97401120172120519AD0780
:0E08A10090008CE0FBA3E0FAA3E0F902071838
:10051900E4900091F090008FF0E4900090F090004A
:1005290090E0FFC39408504E90008FE0FD75F008ED
:10053900A4241AF582E43401F583E5822FF582E4D7
:100549003583F583E07027900090E02401FFE433C0
:10055900FEED2401FDE433FC120A29900091E0FE2E
:1005690004F074922EF582E43400F583EFF09000E4
:1005790090E004F080A890008FE004F0E0C39408B4
:100589004097120681900091E0FD7C001201A6744B
:0B059900922DF58274003CF583E0FF1A
:0105A4002234
:1007180090008FEBF0A3EAF0A3E9F0AF051209D53A
:10072800C003C002C00190008FE0FBA3E0FAA3E081
:100738002401F9E43AA801FCAD03D001D002D003AA
:100748007E007F021200D390008FE0FBA3E0FAA3A3
:07075800E0F97401020172D7
:1008DA0090008FEBF0A3EAF0A3E9F090008F120AE0
:1008EA0010EF7002FF2290008FE0FBA3E0FAA3E072
:0B08FA00F9E412017212092E7F0122A6
:080A1000E0FBA3E0FAA3E0F90A
:050A18001200F9FF22AD
:10081C00900089EBF0A3EAF0A3E9F0900089120AAA
:10082C0010EF6020900089E0FBA3E0FAA3E0240124
:10083C00F9E43AFA788C7C007D017E007F0212008C
:05084C00D3120979221E
:080A53007FBFDFEFF7FBFDFEA2
:10090500E4FFE4FEEF75F008A4241AF582E434014F
:10091500F583E5822EF582E43583F583E4F00EEE6A
:08092500B408E10FEFB408DA99
:01092D0022A7
:10092E00E4FFE4FEEF75F008A424DAF582E4340067
:10093E00F583E5822EF582E43583F583E4F00EEE41
:08094E00B408E10FEFB408DA70
:01095600227E
:0A0A40007F089000D2E4F0A3DFFC71
:010A4A002289
:1009570090008AE0FFA3E075F008A42411F582E473
:100967003401F583E5822FF582E43583F58374013D
:02097700F0226C
:1009790090008CE0FFA3E075F008A424D1F582E48F
:100989003400F583E5822FF582E43583F58374011C
:02099900F0224A
:10047B00120A40E4FFE4FE74D22FF582E43400F557
:10048B0083C083C082E0FDEE75F008A4241AF582C8
:10049B00E43401F583E5822FF582E43583F583E0BF
:1004AB00FCED4CD082D083F0745A2FF582E43401EA
:1004BB00F583C083C082E0FDEE75F008A424DAF565
:1004CB0082E43400F583E5822FF582E43583F583EE
:1004DB00E0FCED4CD082D083F0EEC39407501C743B
:1004EB00D22FF582E43400F583E025E0F0745A2F27
:1004FB00F582E43401F583E025E0F00EEE6408604C
:0D050B00030204820FEF6408600302048005
:0105180022C0
:10075F00E4900086F0D3EF9400EE94004038E4FD6F
:10076F0075A0FF75B0FF74D22DF582E43400F583C8
:10077F00E0F580ED900A5393FCF5A0745A2DF582A5
:10078F00E43401F583E0F5808CB00DEDB408D1EFC2
:06079F001F70C21E80BFA6
:0107A5002231
:10000300E709F608DFFA8046E709F208DFFA803EDF
:1000130088828C83E709F0A3DFFA8032E309F608CC
:10002300DFFA8078E309F208DFFA807088828C8334
:10003300E309F0A3DFFA806489828A83E0A3F608E8
:10004300DFFA805889828A83E0A3F208DFFA804CC2
:1000530080D280FA80C680D4806980F28033801099
:1000630080A680EA809A80A880DA80E280CA803302
:1000730089828A83ECFAE493A3C8C582C8CCC5837A
:10008300CCF0A3C8C582C8CCC583CCDFE9DEE7804A
:100093000D89828A83E493A3F608DFF9ECFAA9F0C9
:1000A300EDFB2289828A83ECFAE0A3C8C582C8CC1F
:1000B300C583CCF0A3C8C582C8CCC583CCDFEADE38
:1000C300E880DB89828A83E493A3F208DFF980CC9A
:1000D30088F0EF60010E4E60C388F0ED2402B40493
:1000E3000050B9F582EB2402B4040050AF2323453A
:0600F3008223900053730C
:1000F900BB010689828A83E0225002E722BBFE0205
:09010900E32289828A83E4932237
:10011200BB010CE58229F582E5833AF583E02250A2
:1001220006E92582F8E622BBFE06E92582F8E222EC
:0D013200E58229F582E5833AF583E4932206
:10013F00BB010FF8E58229F582E5833AF583E028C4
:10014F00F0225009C58229F8E58226F622BBFE0966
:10015F00C58229F8E22582F222F8EA2583F583E9A0
:03016F00932822B0
:10017200BB010689828A83F0225002F722BBFE016C
:02018200F32266
:10018400F8BB010DE58229F582E5833AF583E8F0B1
:10019400225006E92582C8F622BBFE05E92582C85D
:0201A400F22245
:1001A600C2D5EC30E709B2D5E4C39DFDE49CFCEE74
:1001B60030E715B2D5E4C39FFFE49EFE1201DCC30F
:1001C600E49DFDE49CFC80031201DC30D507C3E40A
:0601D6009FFFE49EFE22E3
:100681009001621202317810EC4D4E4F70047CA53E
:100691007DA5C3EC13FCED13FDEE13FEEF13FF502C
:1006A10010EC64CCFCED644CFDEE644EFEEF64CEC8
:1006B100FFD8DF90016212023DEE547FFE229001CD
:0D06C10062EEF0EFA3F0A374A5F0A3F02209
:1001DC00BC000BBE0029EF8DF084FFADF022E4CC07
:1001EC00F875F008EF2FFFEE33FEEC33FCEE9DECD0
:1001FC00984005FCEE9DFE0FD5F0E9E4CEFD22ED16
:10020C00F8F5F0EE8420D21CFEADF075F008EF2F5F
:10021C00FFED33FD4007985006D5F0F222C398FD50
:05022C000FD5F0EA22ED
:0C023100E0FCA3E0FDA3E0FEA3E0FF2240
:0C023D00ECF0A3EDF0A3EEF0A3EFF02234
:00000001FF
