:03000000020AA74A
:0C0AA700787FE4F6D8FD75810702033D5E
:080ACA007FBFDFEFF7FBFDFE2B
:10096F00E4FFE4FEEF75F008A42459F582E43401A6
:10097F00F583E5822EF582E43583F583E4F00EEE00
:08098F00B408E10FEFB408DA2F
:01099700223D
:10099800E4FFE4FEEF75F008A42419F582E43401BD
:1009A800F583E5822EF582E43583F583E4F00EEED7
:0809B800B408E10FEFB408DA06
:0109C0002214
:0A0ABF007F08900111E4F0A3DFFCB2
:010AC900220A
:1009C1009000CAE0FFA3E075F008A42450F582E48A
:1009D1003401F583E5822FF582E43583F5837401D3
:0209E100F02202
:1009E3009001A6E0FFA3E075F008A42410F582E4CB
:1009F3003401F583E5822FF582E43583F5837401B1
:020A0300F022DF
:10084A009000C8EEF0A3EFF0AE04ED7803C333CE08
:10085A0033CED8F92410F58274013EF583C083C0E3
:10086A00829000C8E0FEA3E0D082D0832582F58280
:09087A00E5833EF5837401F022D0
:10059700120ABFE4FFE4FE74112FF582E43401F57B
:1005A70083C083C082E0FDEE75F008A42459F5826C
:1005B700E43401F583E5822FF582E43583F583E0A2
:1005C700FCED4CD082D083F074992FF582E434018E
:1005D700F583C083C082E0FDEE75F008A42419F509
:1005E70082E43401F583E5822FF582E43583F583D0
:1005F700E0FCED4CD082D083F0EEC39407501C741E
:10060700112FF582E43401F583E025E0F074992F8A
:10061700F582E43401F583E025E0F00EEE6408602E
:0D0627000302059E0FEF6408600302059CAE
:0106340022A3
:1007C100E49000C5F0D3EF9400EE94004038E4FDCE
:1007D10075A0FF75B0FF74112DF582E43401F58326
:1007E100E0F580ED900ACA93FCF5A074992DF5828D
:1007F100E43401F583E0F5808CB00DEDB408D1EF60
:060801001F70C21E80BF43
:0108070022CE
:100238009000C9EBF0A3EAF0A3E9F0A3EDF0FF12F8
:100248000A26EF70129000C9E0FBA3E0FAA3E0F9D8
:100258001200F99000CCF09000CCE02481700302E9
:10026800030924C0603924E0606624E460030203C3
:100278003C9000C9E0FBA3E0FAA3E0F974FB12018B
:10028800619000C9E0FBA3E0FAA3E0F99000021234
:100298000112FFB401047F088031EF14FF802C9015
:1002A80000C9E0FBA3E0FAA3E0F974BF1201619072
:1002B80000C9E0FBA3E0FAA3E0F9900002120112E2
:1002C800FFB408047F018003EF04FF900002806000
:1002D8009000C9E0FBA3E0FAA3E0F974DF12016122
:1002E8009000C9E0FBA3E0FAA3E0F9900001120135
:1002F80012FFB401047F088003EF14FF900001800F
:100308002F9000C9E0FBA3E0FAA3E0F9747F120183
:10031800619000C9E0FBA3E0FAA3E0F990000112A4
:100328000112FFB408047F018003EF04FF9000016D
:05033800EF1201732229
:030AD200AF9022C0
:100A4000D3EF9400EE9400400F7D267C82DCFEDD27
:080A5000FAEF1F70EB1E80E8B5
:010A5800227B
:100A2600EF64FB6012EF64BF600DEF64DF6008EFF8
:0A0A3600647F60037F00227F01222D
:100A84009001AAE01475F008A4FF9001A9E0142FC6
:020A9400FF223F
:0C0AB300ED1475F008A4FDEF142DFF22D7
:100A5900EF5407049000D3F0EF131313541F04A3AA
:070A6900F07B017A0079D255
:010A70002263
:1008B8009000CC7405F0A304F09000CB74FBF0E436
:1008C800120161C003C002C00178D17C007D017BA8
:1008D800017A0079CBFE7F031200D3D001D002D079
:0408E80003020919E5
:10091900E94A7002FF22C003C002C00178D77C00F7
:100929007D017B017A0079D17E007F031200D3D04B
:0B09390001D002D0031206C17F012292
:1006C1009000D4EBF0A3EAF0A3E9F09000D4E0FBB2
:1006D100A3E0FAA3E02401F9E43AFAC002C00190D0
:1006E10000D4A3E0FAA3E0F91200F975F003A4D055
:1006F10001D00229F9EA35F0A801FCAD037B017AAA
:100701000079D77E007F031200D39000D4E0FBA3D1
:0A071100E0FAA3E0F9740102013FD1
:0B0A71009000C5E0FBA3E0FAA3E0F951
:080A7C00E92401F9E43AFA2231
:0B0808009000C5EBF0A3EAF0A3E9F0BC
:10081300120A7C1200F9FFB4FB05ED64BF6027EFF9
:10082300B4BF05ED64FB601EEFB4DF05ED647F60CC
:1008330015EFB47F05ED64DF600CAF059000C512C2
:060843000A74EF120161CE
:01084900228C
:0B04DA009000C5EBF0A3EAF0A3E9F0EE
:1004E5009000021201129000CBF09000031201124D
:1004F5009000CCF0A37401F09000C8E0FBA3E0FAF3
:10050500A3E0F94A603D900001120112FF9000CB73
:10051500E0B5072F900002120112FF9000CCE0B564
:1005250007219000C5E0FBA3E0FAA3E0F9740112EE
:10053500013F9000C8E0FBA3E0FAA3E0F9120944EB
:100545007F00229000C5E0FBA3E0FAA3E0F91200CA
:10055500F9FF9000CDE0FEC39F5034EE75F003A483
:10056500FFE92FF9EA35F0FA900002120112FF9027
:1005750000CBE0B50711900003120112FF9000CCEB
:10058500E0B507037F01229000CDE004F080B47F41
:010595000065
:010596002242
:0B0410009000C5EBF0A3EAF0A3E9F0B8
:10041B001200F9149000C8F09000C8E0FFC39401DB
:10042B0050030204AEEF75F003A4FFAEF024FEFD03
:10043B00EE34FFFC9000C5E0FBA3E0FAA3E02DF93E
:10044B00EA3CFAC003C002C0019000C5A3E0FAA3C6
:10045B00E02401F9E43AFAE92FF9EA3EA801FCADF0
:10046B0003D001D002D0037E007F031200D3900093
:10047B00C5E0FBA3E0FAA3E02401F9E43AFAA3E018
:10048B0075F003A429F9EA35F0FA78C97C007D01EF
:10049B007E007F031200D31209C19000C8E014F054
:1004AB00020423120A71C003C002C001120A7112A6
:1004BB0000F9FDD001D002D003120238120A717874
:0F04CB00C97C007D017E007F031200D30209C1AE
:1008EC009000CBEBF0A3EAF0A3E9F09000CBE0FB97
:1008FC00A3E0FAA3E0F9E4120161120635AD07900A
:0D090C0000CBE0FBA3E0FAA3E0F902071B1B
:10063500E4900110F09000CEF0E49000CFF090002F
:10064500CFE0FFC39408504E9000CEE0FD75F00852
:10065500A42459F582E43401F583E5822FF582E47B
:100665003583F583E070279000CFE02401FFE43364
:10067500FEED2401FDE433FC120AB3900110E0FE07
:1006850004F074D02EF582E43400F583EFF0900089
:10069500CFE004F080A89000CEE004F0E0C3940819
:1006A5004097120774900110E0FD7C0012019574CB
:0B06B500D02DF58274003CF583E0FFBF
:0106C0002217
:10071B009000CEEBF0A3EAF0A3E9F0A3EDF0FF120B
:10072B000A59E92401F9E43AFA1200F9FF9000CED4
:10073B00E0FBA3E0FAA3E0F9900001EF1201739044
:10074B0000D1E0FF120A59E92402F9E43AFA120047
:10075B00F9FF9000CEE0FBA3E0FAA3E0F9900002D2
:09076B00EF120173740102016137
:100944009000CEEBF0A3EAF0A3E9F09000CE120AF7
:1009540005EF7002FF229000CEE0FBA3E0FAA3E0D3
:0B096400F9E41201611209987F0122E2
:100A050078D17C007D01E0FBA3E0FAA3E0F97E004C
:050A15007F031200D375
:0C0A1A009000D1E07003FF80027F0122F9
:100883009000C5EBF0A3EAF0A3E9F09000C5120ACB
:1008930005EF60209000C5E0FBA3E0FAA3E0F99028
:1008A3000001120112FF7E00900002120112FD7C72
:0508B3000012084A22BA
:10033D00E4900000F07B019000C804F0A37400F07D
:10034D00A374C2F0802112096F120998120AD2907B
:10035D000000EFF0BFFE199000C87401F0A3740007
:10036D00F0A374C2F07B017A007901120A9680D64F
:10037D00900000E0FF120A26EF600E7B017A0079F3
:10038D0001900000E0FD1208087B017A007901124E
:10039D00041078D17C007D017B017A0079C27E004A
:1003AD007F031200D3120A1AEF700E120635AD0735
:1003BD007B017A0079C212071B7B017A0079C21288
:1003CD0008831205977FE87E031207C19000C87459
:1003DD0001F0A37400F0A374C2F07B017A007901DF
:1003ED001204DAEF70030203539000C87401F0A3F6
:1003FD007400F0A374C2F07B017A007901120A96A1
:03040D0002035394
:100A96001208B89000C8E0FBA3E0FAA3E0F9020848
:010AA600EC63
:10000300E709F608DFFA8046E709F208DFFA803EDF
:1000130088828C83E709F0A3DFFA8032E309F608CC
:10002300DFFA8078E309F208DFFA807088828C8334
:10003300E309F0A3DFFA806489828A83E0A3F608E8
:10004300DFFA805889828A83E0A3F208DFFA804CC2
:1000530080D280FA80C680D4806980F28033801099
:1000630080A680EA809A80A880DA80E280CA803302
:1000730089828A83ECFAE493A3C8C582C8CCC5837A
:10008300CCF0A3C8C582C8CCC583CCDFE9DEE7804A
:100093000D89828A83E493A3F608DFF9ECFAA9F0C9
:1000A300EDFB2289828A83ECFAE0A3C8C582C8CC1F
:1000B300C583CCF0A3C8C582C8CCC583CCDFEADE38
:1000C300E880DB89828A83E493A3F208DFF980CC9A
:1000D30088F0EF60010E4E60C388F0ED2402B40493
:1000E3000050B9F582EB2402B4040050AF2323453A
:0600F3008223900053730C
:1000F900BB010689828A83E0225002E722BBFE0205
:09010900E32289828A83E4932237
:10011200BB010CE58229F582E5833AF583E02250A2
:1001220006E92582F8E622BBFE06E92582F8E222EC
:0D013200E58229F582E5833AF583E4932206
:10013F00BB010989828A83F8E028F022500327F750
:10014F0022BBFE05F8E328F3228A838982F8E49321
:02015F00282254
:10016100BB010689828A83F0225002F722BBFE017D
:02017100F32277
:10017300F8BB010DE58229F582E5833AF583E8F0C2
:10018300225006E92582C8F622BBFE05E92582C86E
:02019300F22256
:10019500C2D5EC30E709B2D5E4C39DFDE49CFCEE85
:1001A50030E715B2D5E4C39FFFE49EFE1201CBC331
:1001B500E49DFDE49CFC80031201CB30D507C3E42C
:0601C5009FFFE49EFE22F4
:100774009001A11202207810EC4D4E4F70047CA51C
:100784007DA5C3EC13FCED13FDEE13FEEF13FF5038
:1007940010EC64CCFCED644CFDEE644EFEEF64CED4
:1007A400FFD8DF9001A112022CEE547FFE229001AB
:0D07B400A1EEF0EFA3F0A374A5F0A3F022D6
:1001CB00BC000BBE0029EF8DF084FFADF022E4CC18
:1001DB00F875F008EF2FFFEE33FEEC33FCEE9DECE1
:1001EB00984005FCEE9DFE0FD5F0E9E4CEFD22ED27
:1001FB00F8F5F0EE8420D21CFEADF075F008EF2F71
:10020B00FFED33FD4007985006D5F0F222C398FD61
:05021B000FD5F0EA22FE
:0C022000E0FCA3E0FDA3E0FEA3E0FF2251
:0C022C00ECF0A3EDF0A3EEF0A3EFF02245
:00000001FF
